:1000000010B5064C2378002B07D1054B002B02D0EE
:10001000044800E000BF0123237010BD3804002015
:100020000000000068010000044B10B5002B03D055
:100030000349044800E000BF10BDC04600000000B6
:100040003C04002068010000034B10B5002B02D0D7
:10005000024800F005F810BD00000000710000002B
:1000600010B5010000230022002000F019F810BD97
:1000700070B5074D074C641BA41005D0013CA300CC
:10008000EB589847002CF9D100F066F870BDC046D7
:1000900034040020380400207047C0467047C04632
:1000A000F0B5D6464F464646C0B5264F82B006004C
:1000B0003868924698468946FFF7EEFF224B1B6848
:1000C0000193A423019A5B00D558002D2ED06C68B3
:1000D0001F2C30DC002E0FD1631C6B604B460234AA
:1000E000A40038686351FFF7D9FF002002B0E0BCDC
:1000F000BA46B146A846F0BD882251462800A30062
:10010000EB189950873AA2408930FF3001681143BB
:1001100001608421404649005850022EDCD12B005A
:100120008D33FF3319680A431A60D5E715004D3542
:10013000FF35D550CBE73868FFF7B0FF01204042CC
:10014000D4E7C0462804002064010000F8B5C0468A
:10015000F8BC08BC9E467047F8B5C046F8BC08BC61
:0C0160009E4670470000002000000000D8
:0C016C00780100000000002038040000B2
:1001780000000000EC02002054030020BC03002013
:100188000000000000000000000000000000000067
:100198000000000000000000000000000000000057
:1001A8000000000000000000000000000000000047
:1001B8000000000000000000000000000000000037
:1001C8000000000000000000000000000000000027
:1001D8000000000000000000000000000000000017
:1001E8000000000000000000000000000000000007
:1001F80000000000000000000000000000000000F7
:1002080000000000000000000000000000000000E6
:1002180000000000000000000100000000000000D5
:100228000E33CDAB34126DE6ECDE05000B0000009A
:1002380000000000000000000000000000000000B6
:1002480000000000000000000000000000000000A6
:100258000000000000000000000000000000000096
:100268000000000000000000000000000000000086
:100598000000000000000000540400204900000092
:0805A800290000000100000021
:00000001FF
